:10F800000C943E7C0C945B7C0C945B7C0C945B7C39
:10F810000C945B7C0C945B7C0C945B7C0C945B7C0C
:10F820000C945B7C0C945B7C0C945B7C0C945B7CFC
:10F830000C945B7C0C945B7C0C945B7C0C945B7CEC
:10F840000C945B7C0C945B7C0C945B7C0C945B7CDC
:10F850000C945B7C0C945B7C0C945B7C0C945B7CCC
:10F860000C945B7C0C945B7C0C945B7C0C945B7CBC
:10F870000C945B7C0C945B7C0C945B7C11241FBE11
:10F88000CFEFD0E1DEBFCDBF11E0A0E0B1E0E0EB13
:10F89000FFEF02C005900D92A030B107D9F712E03A
:10F8A000A0E0B1E001C01D92A930B107E1F70E94CC
:10F8B000AC7D0C94D67F0C94007C982F8091C00076
:10F8C00085FFFCCF9093C60008951F93982F8295D3
:10F8D0008F708A3080F0282F295A892F8F708A30B4
:10F8E00080F4182F105D822F0E945D7C812F0E9472
:10F8F0005D7C1F910895282F205D892F8F708A309D
:10F9000080F3182F195A822F0E945D7C812F0E944C
:10F910005D7C1F910895EF92FF920F931F93429881
:10F92000EE24FF2487018091C00087FD17C0089452
:10F93000E11CF11C011D111D81E4E81682E4F806AA
:10F940008FE0080780E0180770F3E0910101F09163
:10F95000020109958091C00087FFE9CF429A80910A
:10F96000C6001F910F91FF90EF9008950F931F9382
:10F970000E948B7C182F0E945D7C0E948B7C082F3C
:10F980000E945D7C113668F01755013678F400331B
:10F9900008F000531295107F802F810F1F910F9157
:10F9A0000895103390F31053013688F307551295DC
:10F9B000107F802F810F1F910F910895282F88238A
:10F9C00051F090E08091C00087FFFCCF8091C6008D
:10F9D0009F5F9217B8F308951F93182F0E948B7C96
:10F9E000803281F0809100018F5F8093000185302B
:10F9F00011F01F910895E0910101F0910201099524
:10FA00001F91089584E10E945D7C812F0E945D7C9E
:10FA100080E10E945D7C1F9108950E948B7C803262
:10FA200071F0809100018F5F80930001853009F0B3
:10FA30000895E0910101F09102010995089584E192
:10FA40000E945D7C80E10E945D7C0895DF93CF93EE
:10FA500000D000D0CDB7DEB7882309F076C041E0F2
:10FA600050E020E030E0429A19821A821B821C8208
:10FA700089819A81AB81BC81805A9F40A040B0406F
:10FA8000A0F489819A81AB81BC810196A11DB11D31
:10FA900089839A83AB83BC8389819A81AB81BC8142
:10FAA000805A9F40A040B04060F3429819821A8269
:10FAB0001B821C8289819A81AB81BC8180589E43C4
:10FAC000A040B040A0F489819A81AB81BC810196AD
:10FAD000A11DB11D89839A83AB83BC8389819A81DF
:10FAE000AB81BC8180589E43A040B04060F32F5F43
:10FAF0003F4F241735070CF4B6CF19821A821B82A8
:10FB00001C8289819A81AB81BC8180549C49A04030
:10FB1000B040A0F489819A81AB81BC810196A11D7E
:10FB2000B11D89839A83AB83BC8389819A81AB8120
:10FB3000BC8180549C49A040B04060F30F900F906E
:10FB40000F900F90CF91DF910895482F50E041150D
:10FB5000510509F086CFD1CF000094B714BE809133
:10FB600060008861809360001092600091FFA9C1DD
:10FB7000579800004F9905C0E0910101F0910201F2
:10FB800009958CE08093C4001092C50088E18093B1
:10FB9000C10086E08093C2005098589A3A9A83E058
:10FBA0000E94267D81E00E94267D0E948B7C80330E
:10FBB000B9F18133C1F1803409F455C0813409F4BD
:10FBC0005BC0823409F46AC0853409F46DC08035A5
:10FBD00039F1813509F444C1823511F1853509F4D3
:10FBE00069C0863509F471C0843609F4CEC0843703
:10FBF00009F472C0853709F449C1863709F44AC04F
:10FC0000809100018F5F80930001853071F6E09153
:10FC10000101F091020109950E948B7C803349F625
:10FC20000E940D7DC2CF0E948B7C803249F784E117
:10FC30000E945D7C81E40E945D7C86E50E945D7C83
:10FC400082E50E945D7C80E20E945D7C89E40E94E6
:10FC50005D7C83E50E945D7C80E50E945D7C80E1A7
:10FC60000E945D7CA2CF0E948B7C8638C8F20E94E5
:10FC70008B7C0E940D7D99CF0E948B7C803809F48B
:10FC800001C1813809F4FAC0823809F4F3C0883917
:10FC900009F4ECC080E00E94EC7C87CF84E10E94F4
:10FCA000DE7C0E940D7D81CF85E00E94DE7C0E947B
:10FCB0000D7D7BCF0E948B7C809303010E948B7C07
:10FCC000809304010E940D7D70CF84E00E94DE7C51
:10FCD00080E00E94EC7C69CF0E948B7C80930602BE
:10FCE0000E948B7C809305020E948B7C853409F4F2
:10FCF000E2C0809108028E7F809308028091030108
:10FD000090910401880F991F90930401809303013F
:10FD10000E948B7C803209F048CF84E10E945D7C98
:10FD20008091050290910602009709F4C0C000E09E
:10FD300010E0E0910301F09104010DC021FF2AC100
:10FD40003196F0930401E09303010F5F1F4F0817F2
:10FD5000190708F0ACC02091080220FFEFCFF999F5
:10FD6000FECFF2BDE1BDF89A80B50E945D7CE091C6
:10FD70000301F09104013196F0930401E093030133
:10FD80008091050290910602E0CF0E948B7C8093C7
:10FD900006020E948B7C80930502809108028E7F70
:10FDA000809308020E948B7C853429F4809108029C
:10FDB00081608093080245E0E42E41E0F42EF701D3
:10FDC000119281E0E538F807D9F78091050290910A
:10FDD0000602892B89F000E010E00E948B7CF8017C
:10FDE000EB5FFE4F80830F5F1F4F80910502909164
:10FDF00006020817190788F30E948B7C803209F0ED
:10FE0000FFCE8091080280FF62C060910502709170
:10FE1000060261157105E9F040910301509104015A
:10FE20009A01FB01EB5FFE4FF999FECF32BD21BD78
:10FE3000D7018D917D0180BDFA9AF99A2F5F3F4FCE
:10FE4000AE17BF0789F7460F571F50930401409321
:10FE5000030184E10E945D7C80E10E945D7CA5CE6F
:10FE60000E940D7D88E080936000FFCF83E00E94B8
:10FE7000EC7C9BCE80E10E94EC7C97CE81E00E94DE
:10FE8000EC7C93CE82E00E94EC7C8FCE0E948B7C37
:10FE9000803209F0B5CE84E10E945D7C8EE10E9443
:10FEA0005D7C86E90E945D7C8AE00E945D7C80E149
:10FEB0000E945D7C7ACE8091080281608093080266
:10FEC00027CFE0910101F0910201099551CE809177
:10FED000030190910401880F991F9093040180936E
:10FEE00003018091050280FF09C080910502909175
:10FEF000060201969093060280930502F999FECFBF
:10FF00001127E0910301F0910401C5E0D1E0809157
:10FF1000050290910602103091F400915700017093
:10FF20000130D9F303E000935700E89500915700A2
:10FF300001700130D9F301E100935700E895099071
:10FF400019900091570001700130D9F301E000933E
:10FF50005700E8951395103898F011270091570035
:10FF600001700130D9F305E000935700E895009146
:10FF7000570001700130D9F301E100935700E89573
:10FF80003296029709F0C7CF103011F00296E5CFF4
:10FF900011245FCF84910E945D7C80910502909135
:10FFA0000602E0910301F0910401CACEF894FFCF5C
:040000030000F80001
:00000001FF
